:0400000068EF0FF0A6
:1000080000C016F001C015F0E1CF17F0E2CF18F0EC
:10001800F29E9EAA1AD0B00E0301056F010E066F5C
:1000280002010C5103010527D8B0062B38EC0AF061
:1000380005C3E1FF06C3E2FF00C0E6FF02010C2B87
:10004800E0EC09F00052E7E19E9AF2A412D0F29493
:1000580001010D4B0E2B0E51020A02E1710E0D1912
:1000680006E1010E0001C76F01010D6B0E6B060E54
:10007800D66E9EA016D001019E900F4B102B000E3D
:10008800105D02E1040E0F5D08E3CD900F6B106B5D
:10009800E5EC09F0010E0101776F0B0ECF6EDC0E57
:1000A800CE6EF28E16C000F015C001F017C0E1FF49
:0600B80018C0E2FF110078
:1000BE000B1E0A1E091E081E082AD8B4092AD8B417
:0800CE000A2AD8B40B2A120023
:1000D6000450085E0550D8A0053C095E0650D8A01D
:1000E600063C0A5E0750D8A0073C0B5E0336070E97
:1000F6000C6E0334083609360A360B36045003A054
:100106000ED0085E0550D8A0053C095E0650D8A062
:10011600063C0A5E0750D8A0073C0B5E0DD00826A9
:100126000550D8B0053C09260650D8B0063C0A262C
:100136000750D8B0073C0B2603360C2EDAD702340C
:10014600083609360A360B36045003A00ED0085E70
:100156000550D8A0053C095E0650D8A0063C0A5EAC
:100166000750D8A0073C0B5E0DD008260550D8B026
:10017600053C09260650D8B0063C0A260750D8B0DA
:10018600073C0B260236070E0C6E0234083609367B
:100196000A360B36045002A00ED0085E0550D8A0D1
:1001A600053C095E0650D8A0063C0A5E0750D8A05A
:1001B600073C0B5E0DD008260550D8B0053C092635
:1001C6000650D8B0063C0A260750D8B0073C0B2686
:1001D60002360C2EDAD70134083609360A360B36C3
:1001E600045002A00ED0085E0550D8A0053C095E5A
:1001F6000650D8A0063C0A5E0750D8A0073C0B5E06
:100206000DD008260550D8B0053C09260650D8B0B2
:10021600063C0A260750D8B0073C0B260136070EC7
:100226000C6E0134083609360A360B36045001A026
:100236000ED0085E0550D8A0053C095E0650D8A031
:10024600063C0A5E0750D8A0073C0B5E0DD0082678
:100256000550D8B0053C09260650D8B0063C0A26FB
:100266000750D8B0073C0B2601360C2EDAD70034DF
:10027600083609360A360B36045001A00ED0085E41
:100286000550D8A0053C095E0650D8A0063C0A5E7B
:100296000750D8A0073C0B5E0DD008260550D8B0F5
:1002A600053C09260650D8B0063C0A260750D8B0A9
:1002B600073C0B260036070E0C6E0034083609364E
:1002C6000A360B36045000A00ED0085E0550D8A0A2
:1002D600053C095E0650D8A0063C0A5E0750D8A029
:1002E600073C0B5E0DD008260550D8B0053C092604
:1002F6000650D8B0063C0A260750D8B0073C0B2655
:1003060000360C2EDAD700B00ED004500826055061
:10031600D8B0053C09260650D8B0063C0A26075038
:08032600D8B0073C0B261200C1
:0E032E00026A016A006A086A036A000E120081
:08033C000AAE029E000E120041
:100344000B840BAEADEF01F0010E036E026A016A7D
:0A035400006A0A360232FF0E1200A2
:10035E000B6A0A6A096A086A0E6A03340836045080
:10036E00085E0550D8A0053C095E0650D8A0063C94
:10037E000A5E0750D8A0073C0B5EE86AD8A0010EB3
:10038E000E5E0336070E0C6E0334083609360A3637
:10039E000B360E36045003A012D0085E0550D8A0BE
:1003AE00053C095E0650D8A0063C0A5E0750D8A050
:1003BE00073C0B5EE86AD8A0010E0E5E11D008262F
:1003CE000550D8B0053C09260650D8B0063C0A2682
:1003DE000750D8B0073C0B26E86AD8B0010E0E269F
:1003EE0003360C2ED1D70234083609360A360B36B0
:1003FE000E36045003A012D0085E0550D8A0053C5E
:10040E00095E0650D8A0063C0A5E0750D8A0073CED
:10041E000B5EE86AD8A0010E0E5E11D008260550BC
:10042E00D8B0053C09260650D8B0063C0A2607501F
:10043E00D8B0073C0B26E86AD8B0010E0E2602365D
:10044E00070E0C6E0234083609360A360B360E3697
:10045E00045002A012D0085E0550D8A0053C095EDB
:10046E000650D8A0063C0A5E0750D8A0073C0B5E8B
:10047E00E86AD8A0010E0E5E11D008260550D8B03D
:10048E00053C09260650D8B0063C0A260750D8B0BF
:10049E00073C0B26E86AD8B0010E0E2602360C2E4B
:1004AE00D1D70134083609360A360B360E360450CB
:1004BE0002A012D0085E0550D8A0053C095E065079
:1004CE00D8A0063C0A5E0750D8A0073C0B5EE86A2F
:1004DE00D8A0010E0E5E11D008260550D8B0053CEE
:1004EE0009260650D8B0063C0A260750D8B0073C5D
:1004FE000B26E86AD8B0010E0E260136070E0C6EDA
:10050E000134083609360A360B360E36045001A071
:10051E0012D0085E0550D8A0053C095E0650D8A042
:10052E00063C0A5E0750D8A0073C0B5EE86AD8A0CE
:10053E00010E0E5E11D008260550D8B0053C0926D6
:10054E000650D8B0063C0A260750D8B0073C0B26FA
:10055E00E86AD8B0010E0E2601360C2ED1D7003423
:10056E00083609360A360B360E36045001A012D064
:10057E00085E0550D8A0053C095E0650D8A0063C82
:10058E000A5E0750D8A0073C0B5EE86AD8A0010EA1
:10059E000E5E11D008260550D8B0053C092606502F
:1005AE00D8B0063C0A260750D8B0073C0B26E86A9E
:1005BE00D8B0010E0E260036070E0C6E003408362B
:1005CE0009360A360B360E36045000A012D0085EDD
:1005DE000550D8A0053C095E0650D8A0063C0A5E20
:1005EE000750D8A0073C0B5EE86AD8A0010E0E5E3D
:1005FE0011D008260550D8B0053C09260650D8B0B3
:10060E00063C0A260750D8B0073C0B26E86AD8B03D
:10061E00010E0E2600360C2ED1D700B00ED004508F
:10062E0008260550D8B0053C09260650D8B0063C21
:0C063E000A260750D8B0073C0B2612001B
:10064A000C6A0E6A0250D8A43EEF03F001C002F011
:10065A0000C001F0006A0E860250D8A43EEF03F0F3
:10066A0001C002F0016A0E960E880250D8B450EF0B
:10067A0003F00E50035ED8A4D8A055EF03F0D8902B
:10068A0002BE5AEF03F0003601360236032E45EF5A
:10069A0003F055EF03F0010E0C6E44DE5DEF03F03C
:1006AA00020E0C6E4ADE5DEF03F0040E0C6E41DEA4
:0206BA0012002C
:1006BC0003C302F004C303F002C000F003C001F056
:1006CC00024A032A00C0E9FF01C0EAFFEE5201E032
:1006DC00F3D703010351025C006E04510358016E01
:0A06EC00010E005E000E015A12001C
:1006F600A00E006E0F0E016E000E026E036E12004B
:0E070600ACB202D00000FCD703C3ADFF12005E
:10071400220E0C6E086A096A0A6A0B6A0C06D8B4BF
:100724001FD0D8900B320A32093208320332023217
:1007340001320032D8A0F2D70C06D8B409D0045044
:1007440008260550092206500A2207500B22EAD730
:10075400045008260550092206500A2207500B228D
:02076400120081
:1007660003010307030703C301F003070150000851
:1007760003E200000000F7D70000000000000000C0
:04078600000012005D
:10078A000450000A12E10550000A0FE10650000A5F
:10079A000CE10750000A09E1FF0E006EFF0E016E20
:1007AA00FF0E026E7F0E036E98D00C6A07BE0C2AEB
:1007BA000D6A0B6A0A6A096A086A03500210011074
:1007CA000010D8B484D0035007180E6E0EBE0D1E4A
:1007DA0007AE0BD0041E051E061E071E042AD8B437
:1007EA00052AD8B4062AD8B4072A03AE0BD0001EAD
:1007FA00011E021E031E002AD8B4012AD8B4022AF6
:10080A00D8B4032A035007100E6E0EBE1CD05EDC4D
:10081A000CBE36D00DAE5BD0001E011E021E031E9A
:10082A00002AD8B4012AD8B4022AD8B4032A081E46
:10083A00091E0A1E0B1E082AD8B4092AD8B40A2A85
:10084A00D8B40B2A44D007AE15D003BE0DD003503E
:10085A000B6E02500A6E0150096E0050086E036A50
:10086A00026A016A006AD6D7036A026A016A006AE2
:10087A00002A000C031E021E011E001E0C8EC7D782
:10088A00082AD8B4092AD8B40A2AD8B40B2A045098
:10089A00085CD8A4BFD70550095CD8A4BBD70650BA
:1008AA000A5CD8A4B7D707500B5CD8A4B3D70B6A95
:1008BA000A6A096A086A002AD8B4012AD8B4022A3C
:1008CA00D8B4032A03AEA6D70E6A0E88FF0C0E6AA6
:0C08DA000CA002D05FEC00F0000F120038
:1008E6000B820BAE7DEF04F00368026801680068B6
:0808F6000A360232FF0E120067
:1008FE000B6A0A6A096A00500402F4CF09F0F3CFBA
:10090E0008F001500502F4CF0BF0F3CF0AF00050BF
:10091E000502F3500926F4500A22E86A0B22015010
:10092E000402F3500926F4500A22E86A0B2208C08A
:10093E0000F009C001F00AC002F00BC003F0120073
:10094E000A6A0350D8A40A800750D8A40A820A5013
:10095E00D8B40AEF05F0030AD8B4C3EF04F00AB016
:10096E00BEEF04F006AE08EF05F006EF05F002AE9E
:10097E0006EF05F008EF05F00250800B0A6E029E9E
:10098E000650800B069E0A18D8B4D4EF04F00A5015
:10099E00D8B406EF05F008EF05F00750035CD8B4A5
:1009AE00DEEF04F0D8A0FAEF04F000EF05F00650E9
:1009BE00025CD8B4E8EF04F0D8A0FAEF04F000EF30
:1009CE0005F00550015CD8B4F2EF04F0D8A0FAEFB0
:1009DE0004F000EF05F00450005CD8B40AEF05F007
:1009EE00D8B000EF05F00A52D8B408EF05F006EFC4
:1009FE0005F00A52D8B406EF05F008EF05F0D880DE
:0E0A0E001200D8901200D880D8841200120076
:100A1C000D6A086A0050D8B4000C04180A6E0ABE9D
:100A2C000D1E0B6A04AE02D0041E042A00AE02D0C6
:100A3C00001E002A005004100A6E0ABE1FD004507B
:100A4C00085E003600340836045008260036060EC0
:100A5C000C6E00340836045000B0085E00A0082666
:100A6C0000360C2EF6D700A008260BB015D00DAE14
:100A7C00000C001E002A081E082A000C04AE09D027
:100A8C0000BE04D00050086E006AF1D7006A002A3C
:100A9C00000C001E0B2AD3D7082A0450085CD8A4DB
:0E0AAC00E6D7086A002A00AEE2D7FF0C12005F
:080ABA000B6A0B86FF0E12000F
:100AC200010E0201ED6FA551EC1BBDC2E9FFBEC2D2
:100AD200EAFFA551000A03E0AB51EF1202D0A85180
:100AE200EF16A6C203F33EDE0201EC1F0201ED5334
:100AF20017E0ED51EC15006E03E1AB51EF1202D09D
:100B0200A851EF16ED37ED91020EA65D0301036FBA
:100B120029DE000000000000000000000000E6D70F
:100B22000201A551000A03E0A851EF1602D0AB5111
:0A0B3200EF12A6C203F316DE120054
:100B3C000050086E0150006E016A026A036A0B6A6B
:100B4C000C6A960E036E0A6A00C001F008C000F031
:080B5C00086A026A74DD120050
:100B6400ECC204F0EDC205F004C002F005C003F0CD
:100B7400044A052AEEC200F0EFC201F00201EE4B76
:100B8400EF2B00C0E9FF01C0EAFF02C0E1FF03C090
:100B9400E2FFEECFE6FF02C0E9FF03C0EAFFEE5238
:0E0BA40001E0E2D7ECC200F0EDC201F0120059
:100BB200086A096A000E076203645EEF06F00250DB
:100BC20006180A6E075003267E0ED8A0EFEF05F036
:100BD200035ED8B063EF06F0F3EF05F0035ED8A032
:100BE20067EF06F0028E068E02C00EF001C00BF017
:100BF20000C00DF000500402F4CF0CF001500502C9
:100C0200F4CF00F0F3CF08F00402F3500C26F450B6
:100C12000822000E00220D500502F3500C26F4505B
:100C22000822000E002202500402F3500826F4505B
:100C3200002202500502016A000E0122F350002632
:100C4200F45001220D500602F3500826F4500022FF
:100C5200026A000E012202220B500602F350002605
:100C6200F4500122000E02220E500602F350012619
:100C7200F450022202BE46EF06F008360036013674
:100C820002360306D8B467EF06F059EF06F0D880B3
:100C9200800E08640030000E002201220222D8A039
:100CA20059EF06F0023201320032034A63EF06F0D6
:100CB2000AAE029E000E6AEF06F0010E97EC01F0FA
:100CC2006AEF06F0020E0EDE6AEF06F0040EA2ECE8
:040CD20001F012001B
:100CD6000201EF6BECC2E9FFEDC2EAFFEECFEEF2E6
:100CE600EE51000A0EE0EEC203F30ADD0201EF2B1D
:100CF600EF51EC25E96E000EED21EA6EEECFEEF235
:040D0600EFD7120011
:100D0A00ECC2BDF2EDC2BEF2EEC200F0010E026EFE
:100D1A00005004E002360290FF0FFBD702C0A9F28E
:100D2A00021C0201AA6FEFC201F0010E006E01500F
:100D3A0004E000360090FF0FFBD7020100C0ABF2BF
:100D4A00001E00C0A8F2120EEC25E96E000EED217D
:100D5A00EA6E0250EF120050EF16A56BF453D8A4B6
:100D6A00A51F120EE95EA551000A03E0A851EF166D
:100D7A0002D0AB51EF12BADCE80E046E030E056E18
:100D8A00000E066E076EC1DC00C0FFF201C000F360
:100D9A0002C001F303C002F3FFC2F5F200C3F6F288
:100DAA0001C3F7F202C3F8F2F0C200F0F1C201F097
:100DBA00F2C202F0F3C203F00036009001360236A6
:100DCA000336003600900136023603360A0E046EE8
:100DDA00000E056E066E076E98DC00C0F9F201C0BF
:100DEA00FAF202C0FBF203C0FCF200C004F001C038
:100DFA0005F002C006F003C007F0FFC200F000C30E
:100E0A0001F001C302F002C303F0BADC00C0FDF234
:100E1A0001C0FEF201C004F0056A0450051003E0A7
:100E2A00020E006E51D0FDC2A6F2F9C204F0FAC257
:100E3A0005F0FBC206F0FCC207F0F5C200F0F6C2EC
:100E4A0001F0F7C202F0F8C203F09ADC08C000F021
:100E5A0009C001F00AC002F00BC003F000C0F5F2AD
:100E6A0001C0F6F202C0F7F203C0F8F2F9C205F0C7
:100E7A00FAC206F0FBC207F0FCC208F008320732D9
:100E8A0006320532089E08BC088E800E0818046EC9
:100E9A00800E0318045C08E10250075C05E101506A
:100EAA00065C02E10050055C02E20201A62BA6C222
:100EBA0001F00132019E01C0A7F2070E015C03E2B4
:0A0ECA00010E006E01D0006A120054
:100ED400ECC2E9FFEDC2EAFFEE500201EE1905E1B2
:100EE400ECC200F0EDC201F010D0ECC200F0EDC293
:100EF40001F0EC4BED2B00C0E9FF01C0EAFFEECF9F
:0C0F040000F00052E5E1006A016A1200F2
:100F1000F0C200F00201F007005228E0ECC2E9FF45
:100F2000EDC2EAFFEE50000A0CE0ECC2E9FFEDC2B0
:100F3000EAFFEEC2D9FFEFC2DAFFEE50DE1801E1A0
:100F40000FD0ECC2E9FFEDC2EAFFEEC2D9FFEFC25B
:100F5000DAFFDE50EE5C006E016A000E015A08D026
:100F60000201EC4BED2BEE4BEF2BD2D7006A016A5E
:020F700012006D
:100F7200ECC203F3EDC204F35EEC03F000C0F2F244
:100F8200010E0201F46F000EF56F000EF66F000EF7
:100F9200F76FF251000854E2F251EC25006E000E98
:100FA200ED21016E010E005CE96E000E0158EA6E41
:100FB200EECF01F001C0F3F2300E015C36E3F351E3
:100FC200390833E3F251EE25006E000EEF21016E77
:100FD200010E005CE16E000E0158E26EF251EC254A
:100FE200006E000EED21016E010E005CE96E000E36
:100FF2000158EA6EEECFE6FFF4C200F0F5C201F04E
:10100200F6C202F0F7C203F00A0E046E000E056E7D
:10101200066E076E8AEC03F000C0F4F201C0F5F22E
:1010220002C0F6F203C0F7F209D0F0C2E9FFF1C242
:10103200EAFFF0C2E1FFF1C2E2FFE62AF207A9D716
:101042000A0E046E000E056E066E076EF4C200F004
:10105200F5C201F0F6C202F0F7C203F0AFEC01F004
:1010620000C0F4F201C0F5F202C0F6F203C0F7F2DA
:0210720012006A
:10107400ECC2E1FFEDC2E2FFE66A010E0201EF6F8E
:10108400EE6BB491BDC2E9FFBEC2EAFFA551000AEE
:1010940013E1A951EF14016E0150000A0CE0B4A150
:1010A40009D0ECC2E1FFEDC2E2FFFF0EE66EEEC234
:1010B40000F05ED0EED712D0A951EF14016E0150AA
:1010C400000A0CE1B4A109D0ECC2E1FFEDC2E2FFD9
:1010D400FF0EE66EEEC200F04BD0EED7A7C203F3CC
:1010E400B3EC03F0A6C203F3B3EC03F00201EF5335
:1010F40017E0A951EF14016E0150000A02E0EF510C
:10110400EE13EF37EF91020EA65D0301036FB3EC0C
:1011140003F0000000000000000000000000E6D71B
:101124000201A551000A10E1A951EF14016E01500A
:10113400000A010ED8A4000E006EECC2E1FFEDC25D
:10114400E2FF00C0E6FF0FD0A951EF14016E015079
:10115400000A000ED8A4010E006EECC2E1FFEDC23D
:10116400E2FF00C0E6FFA551EE19006E00C0EEF2EA
:02117400120067
:101176000201EC6BEC6B320EEC5D0BE2B00EE16E35
:10118600010EE26EEC51E126D8B0E22AE66AEC2BBB
:06119600F2D70C6B120001
:10119C00150E0201EC6F010EED6F97DD820E0C6ED9
:1011AC00DD0E0D6E0D2EFED70C2EFCD700000000B0
:0411BC00DCDF120062
:1011C000F80E0201E36F040EE46FE56BE66BE76B6C
:1011D0000A0EE86F640EE96F640EEA6FEB6B810E26
:1011E000EC6F0F0EED6FEE6B010EEF6F800EF06F78
:1011F000250EF16F000EF26FF36FF46B86DD820E39
:101200000C6EDD0E0D6E0D2EFED70C2EFCD70000E1
:1012100000000B0ECF6EDC0ECE6E410E0C6EEE0E8D
:101220000D6E0D2EFED70C2EFCD700000201EB6BCD
:10123000190EEB5D0BE2C90EE16E020EE26EEB5190
:10124000E126D8B0E22AE66AEB2BF2D7EB6B080E68
:10125000EB5D0EE2E30EE96E020EEA6EEB51E9265B
:10126000D8B0EA2AEECFECF22CDC0201EB2BEFD760
:10127000CD80EB6B190EEB5D17E2E20EEC6F020E08
:10128000ED6FF8DEC90EE16E020EE26EEB51E12663
:10129000D8B0E22A00C0E6FF0101775302E0776B85
:1012A00003D00201EB2BE6D70201CD900B0ECF6EDF
:1012B000DC0ECE6ECCC201F0006ACD510012000EE1
:1012C00001123CDC00C0C0F001C0C1F002C0C2F09D
:1012D00003C0C3F0D2C201F0006AD3510012000E65
:1012E00001122CDC00C0F0F001C0F1F002C0F2F0FD
:1012F00003C0F3F0CEC201F0006ACF510012000E1D
:1013000001121CDC00C0BCF001C0BDF002C0BEF088
:0613100003C0BFF0120053
:101316000900F5CFE6FF0006FBE10106F9E1120040
:10132600030E0201EC6F020EED6FD2DCC9C2ECF2C5
:10133600CAC2EDF2CDDC000EEC6F020EED6FC8DC1A
:10134600030E0B6E8A0E0C6E550E0D6E0D2EFED70D
:101356000C2EFCD70B2EFAD70000000009DFCBC2FB
:10136600ECF2CCC2EDF2B4DC410EEC6F020EED6F86
:10137600AFDC1A0E0301036F83EC03F0820E0C6ED2
:10138600DD0E0D6E0D2EFED70C2EFCD700000000D4
:04139600EFDE120074
:10139A00800E0201EC6F0F0EED6F040EEE6F050E5C
:1013AA00EF6F800EF06F250EF16F000EF26FF36F84
:0613BA00F46BA6DC12003A
:0A13C000000E9EBA010E006E12002E
:0613CA000201B4811200D3
:1013D0000201C96BCA6B3A0ECB6F020ECC6F0D0EB9
:1013E000CD6F020ECE6F440ECF6F020ED06F630E24
:1013F000D16F020ED26F5A0ED36F020ED46F4F0E02
:10140000D56F020ED66FA40ED76F010ED86F900E57
:10141000D96F010EDA6F780EDB6F010EDC6F090EEB
:10142000C96FCA6BC951CA5D22E2CAC200F0000E80
:10143000016E003600900136CB0E0024E96E020EDC
:101440000120EA6EEECFECF2EECFEDF244DC020EBC
:101450000B6E040E0C6EBA0E0D6E0D2EFED70C2EFA
:10146000FCD70B2EFAD7000086DECA2BDBD7120082
:10147000AECF01F0ABA202D0AB98AB8801C000F0B8
:02148000120058
:101482000450000A12E10550000A0FE10650000A5A
:101492000CE10750000A09E1FF0E006EFF0E016E1B
:1014A2007F0E026EFF0E036EA8D0086A096A07500B
:1014B200D8B4ECEF0AF00350D8B4F1EF0AF00250BE
:1014C20006180A6E028E068E0E6A02C008F001C06D
:1014D2000CF000C00DF004500D5E0550D8A0053C84
:1014E2000C5E0650D8A0063C085E086A0C6A0D6ABB
:1014F200D8A083EF0AF0D8900232013200320832CB
:10150200010E0E6E0750035ED8A090EF0AF07E0E19
:101512000E240326D8B0F6EF0AF096EF0AF07E0EFC
:101522000E240326D8A0FBEF0AF0180E0B6E0D3620
:101532000C3608360036013602360E360450005E8E
:101542000550D8A0053C015E0650D8A0063C025EBC
:1015520006340E120EA0B1EF0AF00D80BCEF0AF0B5
:10156200045000260550D8B0053C01260650D8B0DC
:10157200062802260D900B2E98EF0AF0E2EF0AF0F1
:10158200D8900036013602360E360450005E055001
:10159200D8A0053C015E0650D8A0063C025E063487
:1015A2000E10010B0D26D8B00C2AD8B4082AD8A4E4
:1015B200E2EF0AF008320C320D32032AD8B4F6EF09
:1015C2000AF00AAE089E0850026E0C50016E0D50D1
:1015D200006EFEEF0AF0010E5DEC05F0FEEF0AF080
:1015E200020E97EC01F0FEEF0AF0040E73EC04F029
:0C15F200FEEF0AF0080EA2EC01F012005F
:1015FE004E0E0201EC6F010EED6F6BEC06F0C9C2E0
:10160E00ECF2CAC2EDF26BEC06F05D0EEC6F010E61
:10161E00ED6F6BEC06F0030E0B6E8A0E0C6E550E14
:10162E000D6E0D2EFED70C2EFCD70B2EFAD700000A
:10163E0000009ADD390EEC6F010EED6F6BEC06F0CB
:10164E00CBC2ECF2CCC2EDF26BEC06F0110EEC6FED
:10165E00010EED6F6BEC06F0030E0B6E8A0E0C6E28
:10166E00550E0D6E0D2EFED70C2EFCD70B2EFAD767
:08167E000000000079DD1200FC
:10168600250E0201EC6F010EED6F6BEC06F0CBC27E
:10169600ECF2CCC2EDF26BEC06F0700EEC6F010EC4
:1016A600ED6F6BEC06F0820E0C6EDD0E0D6E0D2EE0
:1016B600FED70C2EFCD7000000005ADDC9C2ECF2A2
:1016C600CAC2EDF26BEC06F0740EEC6F010EED6F14
:1016D6006BEC06F01A0E0301036F83EC03F0820E27
:1016E6000C6EDD0E0D6E0D2EFED70C2EFCD70000F7
:0616F60000003EDD1200C1
:1016FC000201D56BD66BC9C2D1F2CAC2D2F2CBC22F
:10170C00D3F2CCC2D4F2D451FF0A08E1D351FF0A70
:10171C0005E1D251FF0A02E1D151FF0A0DE1CDC220
:10172C00ECF2CEC2EDF26C0EEE6F010EEF6FB2EC7E
:10173C0005F0030E006EF1D1010ECF6FD3AF0ED0BA
:10174C00800ED319006E00C0D3F2CF2BCDC2E1FFB7
:10175C00CEC2E2FF2D0EE66ECD4BCE2B000E006EF0
:10176C00D41908E10050D31905E10050D21902E157
:10177C00D151000A0CE1CDC2ECF2CEC2EDF2660EF4
:10178C00EE6F010EEF6FB2EC05F0006AC6D1D451CA
:10179C00FF0A08E1D351000A05E1D251000A02E127
:1017AC00D151000A0DE1CDC2ECF2CEC2EDF2680EC1
:1017BC00EE6F010EEF6FB2EC05F0CFC200F0ADD1C1
:1017CC00000E046E000E056E000E066E7F0E076E88
:1017DC00D1C200F0D2C201F0D3C202F0D4C203F0E5
:1017EC00A7EC04F0010ED8B0000E006E00521CE005
:1017FC00D1C200F0D2C201F0D3C202F0D4C203F0C5
:10180C00000E046E000E056E200E066E820E076E24
:10181C00D9EC05F000C0D1F201C0D2F202C0D3F273
:10182C0003C0D4F2D607CCD7000E046E000E056EA2
:10183C00200E066E820E076ED1C200F0D2C201F0ED
:10184C00D3C202F0D4C203F0A7EC04F0000ED8B05F
:10185C00010E006E00521CE0D1C200F0D2C201F0A9
:10186C00D3C202F0D4C203F0CD0E046ECC0E056EC2
:10187C004C0E066E7B0E076ED9EC05F000C0D1F253
:10188C0001C0D2F202C0D3F203C0D4F2D62BCCD713
:10189C00FF0ED115086EFF0ED215096E7F0ED315F3
:1018AC000A6E000ED4150B6E08C004F009C005F0CA
:1018BC000AC006F00BC007F0043604900536063655
:1018CC000736000ED115006E000ED215016E000EFB
:1018DC00D315026EFF0ED415036E00C0D1F201C0F9
:1018EC00D2F202C0D3F203C0D4F20450D111006E74
:1018FC000550D211016E0650D311026E0750D4114F
:10190C00036E00C0D1F201C0D2F202C0D3F203C008
:10191C00D4F27F0ED45D006E00C0D0F2010ED46FF5
:10192C0000C004F0D1C200F0D2C201F0D3C202F068
:10193C00D4C203F0045007E00036009001360236A2
:10194C000336FF0FF8D700C0D1F201C0D2F202C0AB
:10195C00D3F203C0D4F2CDC2E1FFCEC2E2FFD45128
:10196C00300FE66ECD4BCE2B800ED619006E800E4E
:10197C00010A005C08E3800E060A006E800ED61980
:10198C00005C01E30AD0CDC2E1FFCEC2E2FF2E0E15
:10199C00E66ECD4BCE2B010ED56F060ED06FD0510F
:1019AC00000A54E0D46BD1C200F0D2C201F0D3C211
:1019BC0002F0D4C203F00036009001360236033632
:1019CC0000360090013602360336D1510026D25132
:1019DC000122D3510222D451032200C0D1F201C002
:1019EC00D2F202C0D3F203C0D4F2D1C200F0D2C200
:1019FC0001F0D3C202F0D4C203F0003600900136DD
:101A0C000236033600C0D1F201C0D2F202C0D3F2CA
:101A1C0003C0D4F2CDC2E1FFCEC2E2FFD451300FED
:101A2C00E66ECD4BCE2BD551000A0EE1D607D65122
:101A3C00000A0AE1CDC2E1FFCEC2E2FF2E0EE66E35
:101A4C00CD4BCE2B010ED56FD007A9D7FF0ECD25D0
:101A5C00E96EFF0ECE21EA6EEE50300A05E1010E62
:101A6C00CD5F000ECE5BF2D7FF0ECD25E96EFF0EDB
:101A7C00CE21EA6EEE502E0A04E1010ECD5F000E6F
:101A8C00CE5BD651000A43E0CDC2E1FFCEC2E2FFED
:101A9C00650EE66ECD4BCE2B800ED619006E800EE9
:101AAC00000A005C0BE2CDC2E1FFCEC2E2FF2D0EBC
:101ABC00E66ECD4BCE2BD6510008D66FD6C2D0F2E7
:101ACC00800E090A006E800ED619005C0FE20A0E19
:101ADC00046ED0C200F00EEC05F0CDC2E1FFCEC218
:101AEC00E2FF0050300FE66ECD4BCE2B0A0E046E8B
:101AFC00D0C200F00EEC05F008C000F0CDC2E1FF42
:101B0C00CEC2E2FF0050300FE66ECD4BCE2BCDC2D5
:0C1B1C00E1FFCEC2E2FFE66A006A1200A0
:101B2800FD0E0201EC6F000EED6F6BEC06F0C9C202
:101B3800ECF2CAC2EDF26BEC06F0480EEC6F010E47
:101B4800ED6F6BEC06F0820E0C6EDD0E0D6E0D2E39
:101B5800FED70C2EFCD700000000BBEC08F01200EA
:101B68000201CD6BCE6BCF6BD06BD16BD26BD36BCD
:101B7800D46BD56B010ED66F000ED76F000ED86FE1
:101B8800000ED96FC9C203F3CAC204F35EEC03F0B6
:101B980000C0CCF200C0CBF200500608D8A0BED0DE
:101BA800C9C2ECF2CAC2EDF2CE0E0201EE6F020E0D
:101BB800EF6FCD0EF06F020EF16FB9EC07F000C0B9
:101BC800D6F201C0D7F202C0D8F203C0D9F2CD5183
:101BD8000108D8A0A0D0C9C2E9FFCAC2EAFFEE50E6
:101BE8002D0A3FE0CB6BCC51CB5D32E2CE0EE96ED5
:101BF800020EEA6ECB51E926D8B0EA2A300EEE5C26
:101C0800006E016A000E015AD6C204F0D7C205F070
:101C18007FEC04F00050D4270150D5230A0E046E3F
:101C2800000E056E066E076ED6C200F0D7C201F030
:101C3800D8C202F0D9C203F0AFEC01F000C0D6F26E
:101C480001C0D7F202C0D8F203C0D9F2CB2BCBD750
:101C5800D551800A02E1000ED41902E1D46BD56B8C
:101C680059D0C9C2E1FFCAC2E2FF2D0EE66EC9C251
:101C7800E9FFCAC2EAFFEE524DE0CD51010A4AE13E
:101C8800010ECB6FCC51CB5D32E2CE0EE96E020E67
:101C9800EA6ECB51E926D8B0EA2A300EEE5C006E27
:101CA800016A000E015AD6C204F0D7C205F07FECD3
:101CB80004F00050D4270150D5230A0E046E000EFC
:101CC800056E066E076ED6C200F0D7C201F0D8C204
:101CD80002F0D9C203F0AFEC01F000C0D6F201C0A7
:101CE800D7F202C0D8F203C0D9F2CB2BCBD7D4514C
:101CF8000008016ED5C202F0000E025601C0D4F2EF
:101D080002C0D5F202507F0A02E1FF0E011802E17B
:101D1800D46BD56B02D0D46BD56B03D00201D46BD6
:0C1D2800D56BD4C200F0D5C201F012004F
:101D3400060E0201B56F070EB66F030EB76F030EE2
:101D4400B86F700EB96F140EBA6F000EBB6F000E31
:101D5400BC6FC00EB06F130EB16F000EB26F000EE9
:101D6400B36FFF0EAC6FFF0EAD6F000EAE6F000EC3
:101D7400AF6FAC8A900EAB6E948E949C9EAA03D0E7
:081D8400AECF00F0FBD7120006
:101D8C00000E0201CA1902E1000EC91937E0C9C2DE
:101D9C00E9FFCAC2EAFFEE5231E0CBC203F3CCC278
:101DAC0004F35EEC03F000C0F0F2C9C2ECF2CAC25C
:101DBC00EDF2CBC2EEF2CCC2EFF288EC07F0000EE3
:101DCC00011802E1000E001805E1C9C200F0CAC2F8
:101DDC0001F016D0010E0201C925EC6F000ECA21CC
:101DEC00ED6FCBC2E9FFCCC2EAFFEECFEEF26AECAC
:101DFC0007F000C0C9F201C0CAF2C2D7006A016A7A
:021E0C001200C2
:101E0E000201CA6BCB6B800EEC6F0F0EED6F040EE2
:101E1E00EE6F050EEF6F800EF06F250EF16F000E58
:101E2E00F26FF36FF46B85EC06F0820E0C6EDD0E26
:101E3E000D6E0D2EFED70C2EFCD7000000000B0EE3
:101E4E00CF6EDC0ECE6ECD800201CA6B050ECA5D62
:101E5E0018E2C90EEC6F020EED6F3AEC08F0BF0EF1
:101E6E00E16E020EE26ECA51E126D8B0E22A00C03F
:101E7E00E6FF0101775302E0776B03D00201CA2B14
:101E8E00E5D70201CD900B0ECF6EDC0ECE6EBF519C
:101E9E00230A06E1C351230A03E1010E006E10D09E
:101EAE00CB6B050ECB5D0BE2BF0EE16E020EE26E4A
:101EBE00CB51E126D8B0E22AE66ACB2BF2D7006AE4
:021ECE00120000
:101ED000F4EC12F0990E0B6E310E0C6EA20E0D6E1C
:101EE0000D2EFED70C2EFCD70B2EFAD70000010EBC
:101EF000AF6EAC841FDFE8EC09F0CDEC09F0030E07
:101F00000B6E8A0E0C6E550E0D6E0D2EFED70C2E1E
:101F1000FCD70B2EFAD7000000006F0E0201C96F2C
:101F2000020ECA6F820ECB6F020ECC6FFFEC0AF06E
:101F3000910EC96F020ECA6FF7DD030E0B6E8A0E8B
:101F40000C6E550E0D6E0D2EFED70C2EFCD70B2EE3
:101F5000FAD700000000E00EF26E210E9D6E9E6A20
:101F6000470ED56E300ECD6E060ED66E0B0ECF6EB2
:101F7000DC0ECE6E94968286949482849488BBEC18
:101F800008F0030E0B6E8A0E0C6E550E0D6E0D2EA4
:101F9000FED70C2EFCD70B2EFAD700000000D58EF2
:101FA00036DF00522EE0C36BC00EC96F020ECA6F3F
:101FB0007C0ECB6F020ECC6F43EC0BF0C00EC96FE2
:101FC000020ECA6FD1DD00C0C4F001C0C5F000012F
:101FD000C66B050EC65D0BE2BF0EE16E020EE26E31
:101FE000C651E126D8B0E22AE66AC62BF2D7820EA5
:101FF0000C6EDD0E0D6E0D2EFED70C2EFCD70000E4
:1020000000000001C7537CE0C76BE0EC08F00D0E48
:102010000C6EFB0E0D6E0D2EFED70C2EFCD70000A5
:102020000000000E046E000E056E200E066E820E7D
:10203000076EC0C000F0C1C001F0C2C002F0C3C052
:1020400003F041EC0AF000C0C9F201C0CAF202C0BC
:10205000CBF203C0CCF29B0E0201CD6F020ECE6F0D
:102060007EEC0BF09B0EC96F020ECA6FB40ECB6FE5
:10207000000ECC6F43EC0BF0BCC0C9F2BDC0CAF27D
:10208000BEC0CBF2BFC0CCF29B0ECD6F020ECE6FA6
:102090007EEC0BF09B0EC96F020ECA6FE60ECB6F83
:1020A000000ECC6F43EC0BF0000E046E000E056EBC
:1020B000200E066E820E076EF0C000F0F1C001F037
:1020C000F2C002F0F3C003F041EC0AF000C0C9F224
:1020D00001C0CAF202C0CBF203C0CCF29B0E0201D7
:1020E000CD6F020ECE6F7EEC0BF09B0EC96F020E11
:1020F000CA6FF40ECB6F000ECC6F43EC0BF0D58E95
:102100000201B00EC96F010ECA6FDF0ECB6F000E59
:10211000CC6F3CDE0050011003E182B801D060D0EA
:10212000827482B42AD0C80E0201C96F000ECA6F31
:10213000CA0ECB6F000ECC6F43EC0BF0820E0C6E10
:10214000DD0E0D6E0D2EFED70C2EFCD7000000000C
:10215000D40EC96F000ECA6F420ECB6F000ECC6F4B
:1021600093EC09F0820E0C6EDD0E0D6E0D2EFED777
:102170000C2EFCD70000000029D00201560EC96FBA
:10218000000ECA6F580ECB6F000ECC6F43EC0BF0F5
:10219000820E0C6EDD0E0D6E0D2EFED70C2EFCD7B2
:1021A00000000000370EC96F000ECA6F190ECB6F0A
:1021B000000ECC6F93EC09F0820E0C6EDD0E0D6EEE
:1021C0000D2EFED70C2EFCD700000000820E0C6EE8
:1021D000DD0E0D6E0D2EFED70C2EFCD7000000007C
:1021E000800E0001C519006E800E005C02E10A0E2F
:1021F000C45D0AE3800E006E800EC519005C02E12A
:10220000C4512D0801E36FD0800E006E800EC519F9
:10221000005C02E1C4512D082DE282A42BD08294EF
:102220002B0E0201C96F000ECA6F2D0ECB6F000E70
:10223000CC6F43EC0BF0820E0C6EDD0E0D6E0D2E8E
:10224000FED70C2EFCD700000000930EC96F000EC5
:10225000CA6F9E0ECB6F000ECC6F93EC09F0820E0E
:102260000C6EDD0E0D6E0D2EFED70C2EFCD7000071
:10227000000036D0800E0001C519006E800E005C93
:1022800002E10A0EC45D2CE282B42AD08284B20E2E
:102290000201C96F000ECA6F890ECB6F000ECC6FA2
:1022A00043EC0BF0820E0C6EDD0E0D6E0D2EFED784
:1022B0000C2EFCD700000000620EC96F000ECA6F22
:1022C0006D0ECB6F000ECC6F93EC09F0820E0C6E8E
:1022D000DD0E0D6E0D2EFED70C2EFCD7000000007B
:1022E000BBEC08F034D00201B00EC96F010ECA6F0A
:1022F0007F0ECB6F000ECC6F49DD005001101BE04C
:10230000820E0C6EDD0E0D6E0D2EFED70C2EFCD740
:1023100000000000BBEC08F0CEEC08F0820E0C6E62
:10232000DD0E0D6E0D2EFED70C2EFCD7000000002A
:10233000BBEC08F00CD0BBEC08F0820E0C6EDD0E8E
:102340000D6E0D2EFED70C2EFCD70000000028D6F7
:02235000FFD7B5
:1025E80010EE19F0820E006E030E016E520EF66E9A
:0E25F800230EF76E000EF86E8BEC09F0120049
:102352004D6F746F626F6D6261206170616761645D
:02236200610018
:02236400310046
:0A2366006D6F746F626F6D626100AD
:0B237000333030383135373433310062
:10237B004D6F746F626F6D626120656E63656E6425
:04238B006964610020
:02238F0030001C
:0A2391006D6F746F626F6D62610082
:0B239B00333030383135373433310037
:1023A6004D6F746F626F6D62612061706167616409
:0223B6006100C4
:0A23B800436C6F73654D51545400DF
:0A23C2006D6F746F626F6D62610051
:0B23CC00333030383135373433310006
:1023D7004D6F746F626F6D626120656E63656E64C9
:0423E70069646100C4
:0223EB003000C0
:0823ED00766F6C74616A6500F3
:0423F50000000000E4
:0423F90000000000E0
:0223FD001E00C0
:0123FF0000DD
:0124000000DB
:022401003100A8
:0A2403006D6F746F626F6D6261000F
:0B240D003330303831353734333100C4
:072418006368616E67650057
:0A241F00636F727269656E746500E8
:0424290000000000AF
:09242D00706F74656E6369610053
:1024360041542B514D545355423D302C312C2200E2
:02244600000094
:02244800000092
:04244A00220D0A0055
:10244E0041542B514D54434C4F53453D300D0A00D2
:10245E0041542B514D545055423D302C302C302C84
:04246E00302C2200EC
:0F24720041542B514D54434F4E4E3D302C2200C0
:06248100222C310D0A00BF
:0F24870041542B514D544F50454E3D302C2200A7
:09249600222C313838330D0A0004
:02249F0030000B
:0424A100494E46005A
:0424A5004E614E0036
:0424A900220D0A00F6
:0324AD000D0A0015
:0124B000002B
:1024B10041542B514346473D227572632F6361633B
:0824C1006865222C310D0A00B0
:1024C90041542B434E4D493D322C322C302C302C6B
:0424D900300D0A00B8
:0C24DD0041542B434D47463D310D0A0091
:1024E90000000000000000000000000000000000E3
:1024F90000000000000000000000000000000000D3
:1025090000000000000000000000000000000000C2
:1025190000000000000000000000000000000000B2
:1025290000000000000000000000000000000000A2
:032539000D0A0088
:09253C0041542B434D47533D006F
:012545000095
:1025460041542B434744434F4E543D312C2249506E
:10255600222C22696E7465726E65742E636F6D63CC
:0D256600656C2E636F6D2E636F220D0A00F1
:07257300415445300D0A0040
:03257A000D0A0047
:0B257D0041542B4350494E3F0D0A0013
:0B25880041542B435245473F0D0A0011
:0925930041542B4353510D0A0081
:0C259C0041542B434D45453D320D0A00D3
:0D25A80034302E37312E3132352E323100D5
:0625B500776174657200FD
:0F25BB00477275706F496F54436C69656E740099
:0A25CA006D6F746F626F6D62610047
:0125D4000006
:0125D5000005
:1025D6003A020D02440263025A024F02A40190011C
:0225E60078017A
:020000040030CA
:0D000100220F0EFF0181FF0FC00FE00F4026
:00000001FF
